:020000040800F2
:10000000700B002055020008552A0008C52300087F
:10001000512A0008B90500086D30000800000000F2
:100020000000000000000000000000005D2A000841
:10003000E105000800000000592A0008612A0008B4
:100040006F0200086F0200086F0200086F020008CC
:100050006F0200086F0200086F0200086F020008BC
:100060006F0200086F0200086F0200086F020008AC
:10007000BD0500086F0200086F0200086F0200084B
:10008000C90500086F0200086F0200086F0200082F
:100090006F0200086F0200086F020008E505000803
:1000A0006F0200086F0200086F0200086F0200086C
:1000B000212B00082D2B0008392B00086F020008A7
:1000C0006F0200086F0200086F0200086F0200084C
:1000D0006F0200086F020008493000085530000820
:1000E0006F0200086F0200086F0200086F0200082C
:1000F0006F0200086F0200086F0200086F0200081C
:100100006F0200086F0200086F0200086F0200080B
:100110006F0200086F0200086F0200086F020008FB
:100120006F020008D50500086F0200086F02000882
:100130006F0200086F0200086F0200086F020008DB
:100140006F0200086F0200086F0200086F020008CB
:100150006F0200086F0200086F020008613000089B
:100160006F0200086F0200086F0200086F020008AB
:100170006F0200086F0200086F0200080000000014
:100180006F0200086F02000800F002F800F052F859
:1001900014A696E8000CB244B344DA4501D100F04D
:1001A00049F8BAE80F000FA696E83000A5EB040561
:1001B00004EB0607AAEB0704A7F101074FEA1515A0
:1001C0004FEA3414A4F10104AC4201D300F032F838
:1001D00013F0010F18BFFB1A43F0010300F001F800
:1001E000DBE71847002F0000202F0000103A24BF43
:1001F00078C878C1FAD8520724BF30C830C144BF8C
:1002000004680C6070470000704700000023002461
:1002100000250026103A28BF78C1FBD8520728BF16
:1002200030C148BF0B6070471FB502F03EFF1FBDD5
:1002300010B510BD00F0F2F81146FFF7F5FF02F01F
:1002400017FF00F010F903B4FFF7F2FF03BC00F052
:1002500017F900000948804709480047FEE7FEE714
:10026000FEE7FEE7FEE7FEE7FEE7FEE7FEE7FEE766
:1002700004480549054A064B704700000D2B00084D
:100280008901000870050020700B00207007002015
:100290007007002053EA020C00F069802DE9F04B52
:1002A0004FF00006002B1FBFB3FA83F503FA05F4E5
:1002B00024FA05F65E4012BF1643B2FA82F502FA3E
:1002C00005F4C5F120051EBF22FA05FC44EA0C0422
:1002D000203556EA044C4FEA144418BF641C4FF012
:1002E00000084FF00009904271EB030C39D300294C
:1002F00019BFB1FA81F701FA07F6B0FA80F700FAF0
:1003000007F6C7F120071EBF20FA07FC46EA0C06D5
:100310002037B6FBF4FCA7EB0507103F07F01F0BD7
:10032000CBF120062CFA06F60CFA0BFB44BFB346C1
:100330000026202FA4BF5E464FF0000B5BEA060CA0
:1003400008BF4FF0010B19EB0B0948EB0608ABFB9C
:10035000027C06FB02CC0BFB03CCC01B71EB0C0137
:10036000C1E70B46024641464846BDE8F08B13B54F
:10037000084318BF4FF0FF300146AFF30080BDE8DF
:100380001C4070474FF000020429C0F0128010F0AA
:10039000030C00F01B80CCF1040CBCF1020F18BF61
:1003A00000F8012BA8BF20F8022BA1EB0C0100F0F4
:1003B0000DB85FEAC17C24BF00F8012B00F8012BC7
:1003C00048BF00F8012B70474FF0000200B51346FC
:1003D00094469646203922BFA0E80C50A0E80C5065
:1003E000B1F12001BFF4F7AF090728BFA0E80C5016
:1003F00048BF0CC05DF804EB890028BF40F8042B0F
:1004000008BF704748BF20F8022B11F0804F18BF7B
:1004100000F8012B7047704770477047754600F031
:100420002BF8AE4605006946534620F00700854686
:1004300018B020B5FFF71CFFBDE820404FF00006C4
:100440004FF000074FF000084FF0000BAC46ACE84F
:10045000C009ACE8C009ACE8C009ACE8C00921F0AB
:1004600007018D46704710B50446AFF30080204663
:10047000BDE81040FFF7E7BE0048704710000020BD
:1004800001491820ABBEFEE72600020070470000BD
:1004900070B582B040F60004C4F2020420464FF466
:1004A0000071012200F0BCFB20464FF48061002265
:1004B00000F0B6FB20464FF40071002200F0B0FBC4
:1004C000062000F041F820464FF40071012200F0B0
:1004D000A7FB012000F0A8FA41F20040C0F2E000C2
:1004E000019020464FF40071002200F099FB40F289
:1004F0007600C2F2000043210170432000F024F88E
:1005000001A8451E042600BF15F8010F013E00F0AA
:100510001BF83006F8D120464FF40071012200F09C
:100520007FFB20464FF40071002200F079FB082089
:1005300000F00AF820464FF40071012202B0BDE835
:10054000704000F06DBB0000F0B581B040F60005D2
:1005500004460026C4F20205002700BFE0B2C2092B
:1005600028464FF4805100F05BFB0120640000F04E
:100570005BFA28464FF48061012200F051FB012014
:1005800000F052FA28464FF4006100F03BFB0028CF
:1005900018BF012040EA470728464FF48061002237
:1005A00000F03EFB012000F03FFA072E06F10106A5
:1005B000D4D3F8B201B0F0BDFEE7000040F2E00095
:1005C000C2F2000000F07AB840F28000C2F20000EF
:1005D00000F074B840F24010C2F2000000F06EB8B3
:1005E0007047000043F61440C4F201000068C005E3
:1005F0000AD580B540F60000C4F202004FF48071C5
:1006000000F000FBBDE880404FF4807000F022BA9B
:1006100072B600BFFEE7000070B5866D044600F0BC
:1006200005FB94F83510022925D105462068216C78
:10063000026822F016020260426922F080024261E2
:1006400009B9A16C19B1016821F0080101600168C4
:1006500021F00101016000BF20680068C0070ED0D2
:1006600000F0E4FA401B0628F6D320206065032042
:1006700084F835000CE080206065012008E0E06D22
:100680003F2101FA00F0B060012084F8350000201D
:10069000002184F8341070BD90F83510022909D17A
:1006A000052180F835100068016821F00101016022
:1006B000002070478021416501207047F0B581B06E
:1006C00004460020009040F20000C2F200000268E0
:1006D000D4E9166048F2B51337680821C1F64E33E5
:1006E00081403942A2FB03250CD0226813685B07C6
:1006F00008D5136823F004031360B160616D41F005
:100700000101616501218140394208D022685269A6
:10071000120604D5B160616D41F0020161650421EA
:100720008140394208D022681268920704D5B1602E
:10073000616D41F00401616510218140394215D09D
:1007400020680268120711D5B1600268016852037F
:1007500006D4C90506D4016821F00801016001E052
:1007600008033ED4216C09B120468847E16D202062
:1007700000FA01F23A4240D020680368DB063CD51B
:10078000B26094F835300268052B1AD122F01602B7
:100790000260426922F080024261226C0AB9A26CB6
:1007A0001AB1026822F0080202603F208840B0605F
:1007B000012084F83500216D002084F83400D9BB75
:1007C0003FE00168520310D4C90512D4016821F03A
:1007D00010010160012084F83500002084F8340005
:1007E00007E0A16C0029BFD1C0E7080301D4616C08
:1007F00000E0E16B09B120468847606D08B3606D89
:10080000C00717D0052084F835002068A90A0268BF
:1008100022F00102026000BF009A01328A42009277
:1008200002D80268D207F7D1012084F835000020F1
:1008300084F83400E16C21B1204601B0BDE8F040FD
:10084000084701B0F0BD00002DE9F041044600F07A
:10085000EDF9C4B10546022084F835000020216876
:1008600084F83400086820F00100086020680168FE
:10087000C9070BD000F0DAF9401B0528F6D903218F
:10088000202203207AE00120BDE8F081016848F2CF
:100890003F02CFF21002D4E9013501EA020ED4E999
:1008A000032143EA0E032B43D4E9056C1A43D4E930
:1008B00007781143314341EA0702616A42EA0802BC
:1008C000042942EA0C0303D1D4E90B273A4313432A
:1008D00003604269042922F0070241EA02012DD196
:1008E000D4E90A5341EA050143B3BCF5005F08D0DF
:1008F000BCF1000F12D1022D16D0012D07D09DB1F1
:1009000019E0032D17D8DFE805F00B0F0B02A3F158
:10091000C072B2FA82F252094AB90FE0032D02D234
:10092000012222B90AE006D1C3F3006232B10121EB
:100930004022012022E00022002AF8D100F0F80233
:100940004AF6AB23103ACAF6AA23A2FB033743F2B6
:10095000DC0341613909C0F60003595C40F2FF3302
:1009600098435F2A4FF03F0288BF0430C4E9160164
:1009700002FA01F18160002201210020626584F801
:100980003510BDE8F081000090F834C0BCF1010FD3
:1009900004BF0220704770B54FF0010C80F834C0DE
:1009A000D0F858E090F835C0BCF1010F37D14FF0C6
:1009B000020C80F835C04FF0000CC0F854C0D0F8DD
:1009C00000C08468056CC06DDCF80060402C26F423
:1009D0008026CCF80060CCF804300B4604BF1346E8
:1009E0000A463F2101FA00F0CCF80830CCF80C2080
:1009F000CEF80800DCF8000040F01600CCF800004B
:100A00002DB1DCF8000040F00800CCF80000DCF864
:100A1000000040F00100CCF80000002070BD002173
:100A200080F83410022070BDB0B5044600F0FEF826
:100A3000054640F20400C2F200000078611C18BFB5
:100A4000044400BF00F0F2F8401BA042FAD3B0BD4E
:100A50007047000043F61441C4F201010A680242E3
:100A600014BF08607047FFF7F3BF00002DE9F04F97
:100A700082B000F13E4707F1FF77860546EA9727E7
:100A800041F60046C4F202060822B04208BF07221F
:100A9000072F38BF3A46002400274FF00009009284
:100AA00009E000BF09F101090237B9F1100F04F1A3
:100AB000040400F0A4800D68012202FA09FC15EA82
:100AC0000C08EFD0D1F804B00BF0030AAAF101052D
:100AD000012D12D80322856802FA07FECA6825EAAA
:100AE0000E05BA402A4382604268CBF3001522EA21
:100AF0000C0205FA09F52A434260BAF1030F1CD033
:100B0000C26803238E6803FA07F5AA43BE40324346
:100B1000BAF1020FC26010D16FF0030202EA59026B
:100B20000244D2F820C004F01C050F230E69AB402C
:100B30002CEA0303AE4033431362026803234E687A
:100B4000BB409A4306F00303BB401A4316F4403FF0
:100B50000260A7D0002243F644030192C4F20203CC
:100B60001A6843F6004E42F480421A601A68C4F2D2
:100B7000010E02F480420192019A29F003024FF61D
:100B8000084C7244CFF6FF7C52F80C3004F00C068F
:100B90000F25B540AB43009D05FA06F6334342F8F6
:100BA0000C30DEF808204B6842EA080643F60C4C8D
:100BB000DD0258BF22EA0806CEF80860C4F2010C34
:100BC000DCF800209D0242EA080658BF22EA080627
:100BD000CCF80060DEF804209D0342EA080658BF06
:100BE00022EA0806CEF80460DEF80020DB0342EAC1
:100BF000080658BF22EA0806CEF8006052E702B0A5
:100C0000BDE8F08F0069084018BF01207047000060
:100C1000426902EA0103914341EA0341816170475D
:100C2000002A08BF090481617047000040F2685043
:100C3000C2F200000068704740F2040040F26851C0
:100C4000C2F20000C2F2000100780A681044086095
:100C50007047000080B543F60040C4F2020001680E
:100C600041F400710160016841F480610160016834
:100C700041F480710160032000F08AF8032000F045
:100C800005F800F02BF8002080BD0000B0B540F260
:100C90000402C2F2000240F200011278C2F2000126
:100CA0004FF47A730968B3FBF2F20446B1FBF2F138
:100CB000084600F035FB0F2C4FF001050CD858B951
:100CC0004FF0FF3021460022002500F035F840F2B9
:100CD0000800C2F2000004602846B0BD82B00020C7
:100CE00043F640010190C4F202014A6842F4804296
:100CF0004A604A6802F480420192019A00900868B2
:100D000040F080500860086800F080500090009823
:100D1000052002B000F03CB8002848BF704700F042
:100D20001F01012202FA01F14EF200124009CEF237
:100D3000000242F82010704710B54EF60C5CCEF25F
:100D4000000CDCF80030C3F3022E8EF00704042CF4
:100D500028BF0424BEF103034FF0FF3E0EFA04F453
:100D600038BF0023A14399400EFA03F39A4311437D
:100D700000F1604200F00F03090102F56442043BF8
:100D80006344002848BF03F10C02117010BD00003D
:100D90004EF60C51CEF200010A684FF6FF031A40DE
:100DA00060F30A2242F0806040F0FD7008607047F6
:100DB000002804BF012070472DE9F04143F60808E0
:100DC000C4F202080446D8F8F8030D4600F0070004
:100DD000884207D288F8F853D8F8F80300F00700E3
:100DE000A84276D12068810717D5410705D5D8F8E4
:100DF000001041F4E051C8F80010010705D5D8F8FB
:100E0000001041F46041C8F80010D8F80010A26842
:100E100021F0F0011143C8F80010C0073FD1D8F805
:100E2000F80300F00700A84207D988F8F853D8F86B
:100E3000F80300F00700A8424BD12068410707D50E
:100E4000D8F80010E26821F4E0511143C8F800100E
:100E5000000708D5D8F80000216920F4604040EA76
:100E6000C100C8F8000000F07BF8D8F8001043F289
:100E7000C402C1F30311C0F60002515C40F200024B
:100E800020FA01F140F20800C2F200000068C2F24C
:100E900000021160FFF7FAFE0020BDE8F0816068F3
:100EA000811E022907D258F8081C89015CBF012065
:100EB000BDE8F08110E0012807D158F8081C89032B
:100EC0005CBF0120BDE8F08106E058F8081C8907E6
:100ED00002D40120BDE8F081D8F8001021F0030110
:100EE0000843C8F80000FFF7A1FE064641F2883724
:100EF000D8F80000616800F00C00B0EB810F8ED0D4
:100F0000FFF794FE801BB842F2D90320BDE8F081C0
:100F100040F2000043F60801C2F20000C4F20201F0
:100F20000068096843F2D402C1F38221C0F60002CE
:100F3000515CC8407047000040F2000043F60801D1
:100F4000C2F20000C4F202010068096843F2D40250
:100F5000C1F34231C0F60002515CC8407047000046
:100F600010B543F60404C4F20204606800F00C01FA
:100F700042F200400829C0F2F40007D0042918BF4B
:100F800010BD41F20020C0F27A0010BD216801F0CE
:100F90003F02216823684902C3F3881105D4A1FBED
:100FA00000010023FFF776F906E041F20020C0F2CD
:100FB0007A004843B0FBF2F021680222C1F30141FC
:100FC00002EB4101B0FBF1F010BD0000002804BFAE
:100FD000012070472DE9F04182B00446007843F6C5
:100FE0000006C007C4F2020647D0B06800F00C004B
:100FF000042808D1306880033FD56068E8BB012031
:1010000002B0BDE8F081B06800F00C00082802D101
:1010100070684002EED46568B5F5A02F0AD0B5F52A
:10102000803F0BD0306820F480303060306820F48E
:10103000802006E0306840F480203060306840F462
:1010400080303060FFF7F2FD002D054612D000BF62
:101050003068800311D4FFF7E9FD401B6428F7D9FD
:1010600026E100BFFFF7E2FD401B64284FF00300BC
:1010700000F2E28030688003F4D4207880071BD52A
:10108000B06810F00C0F09D0B06800F00C00082810
:1010900040F087807068400200F1838030688007EC
:1010A00003D5E068012840F09E803068216920F077
:1010B000F80040EAC10030602078000735D420787D
:1010C000400748D4A56965B3B06800F00C00082853
:1010D00040F09E80012D00F086807068E16900F488
:1010E00080028A4240F07F80216A00F03F028A42FB
:1010F00079D147F6C071626A0140B1EB821F72D1AB
:10110000A16A4FF6FF73C903994300F44032A1F579
:1011100080318A4267D1E16A00F07060B0EB016F04
:1011200061D1002002B0BDE8F0816069002840F282
:101130000000C4F247205AD00121C0F8801EFFF7FA
:1011400075FD0546706F8007B9D4FFF76FFD401B32
:101150000228F7D9ACE0306C5FEAC0080AD400205E
:101160000190306C40F080503064306C00F0805062
:101170000190019847F20007C4F200073868C005E3
:1011800024D4386840F480703860FFF74FFD05467E
:101190003868C0051AD4FFF749FD401B0228F7D96B
:1011A00086E0E068002857D00020C4F247200121E3
:1011B0000160FFF73BFD0546306880073FF575AFDE
:1011C000FFF734FD401B0228F6D971E0A568052D14
:1011D00056D0012D58D0306F20F001003067306FAD
:1011E00020F0040053E0012002B0BDE8F0810021AE
:1011F000C0F8801EFFF71AFD054600BF706F80071C
:101200007FF55DAFFFF712FD401B0228F6D94FE0D6
:101210000027C4F2472700203866FFF707FD022D9C
:1012200005460DD13068800159D5FFF7FFFC401B02
:1012300002284FF00300F5D902B0BDE8F08100BFED
:10124000306880017FF56DAFFFF7F0FC401B02288E
:101250004FF00300F4D9EFE70020C4F2472000214B
:101260000160FFF7E3FC0546306880077FF524AF97
:10127000FFF7DCFC401B02284FF00300F4D9DBE74A
:10128000306F40F004003067306F40F0010030678D
:10129000FFF7CCFC002D054641F2883713D000BF84
:1012A000306F800712D4FFF7C1FC401BB842F7D95A
:1012B000032002B0BDE8F081FFF7B8FC401BB84244
:1012C0004FF00300B8D8306F8007F5D4B8F1000FA5
:1012D0003FF5F8AE306C20F080503064F2E604F157
:1012E0001C052FCD084340EA8210D9034FF6FF7248
:1012F0009143A1F5803140EA056008437060012008
:101300003866FFF793FC0446306880013FF509AF6B
:10131000FFF78CFC001B02284FF00300F4D98BE789
:10132000411E0020B0EB116F1CBF012070474EF230
:101330001002CEF2000251604EF62351CEF20001AF
:10134000F0230B7007219060116070477047000018
:101350007047000090F83C20012A04BF022070472B
:10136000B0B501F108053CCDD1E900CE23F47C53A2
:1013700022F470521A432EF4F0431A432CF4E04343
:101380001A4324F4C0431A432A43C96922F4804211
:10139000036811435964002180F83C10BDE8B04057
:1013A0000846704790F83C20012A4FF0020255D0C1
:1013B00010B5012380F83C3080F83D200268D2F857
:1013C00004E0D2F808C00C682EF07003234341F209
:1013D000FF74C4F20004A24253600DDC40F2FF73BC
:1013E000C4F200039A4215DCB2F1804F29D040F2DA
:1013F0000043C4F2000322E040F2FF33C4F20103D1
:101400009A4212DC41F60003C4F200039A4218D05B
:10141000002312E040F60003C4F200039A4210D009
:1014200040F60043C4F2000309E044F20003C4F2B2
:1014300001039A4205D040F20043C4F201039A42EC
:1014400004D149682CF080031943916001210022E6
:1014500080F83D1080F83C20BDE8104010467047F1
:10146000002804BF0120704710B5044690F83D00E5
:1014700028B9002084F83C00204600F01FF8022024
:1014800084F83D002068211D01F05CFB012084F8F8
:10149000460084F83E0084F83F0084F8400084F859
:1014A000410084F8420084F8430084F8440084F842
:1014B000450084F83D00002010BD000080B582B0DA
:1014C000006840F2FF71C4F2000188421EDCB0F1F6
:1014D000804F37D040F20041C4F2000188422FD142
:1014E0000020019043F64000C4F20200016800228F
:1014F00041F0020101600068012100F0020001904A
:1015000001981D20FFF718FC1D2046E040F6000161
:10151000C4F2000188422BD00021C4F201018842AC
:101520000ED10020019043F64000C4F20200416851
:1015300041F001014160406800F001000190019814
:1015400002B080BD0020019043F64000C4F20200CA
:101550000168002241F0010101600068002100F0F3
:101560000100019001981C20FFF7E6FB1C2014E00D
:101570000020019043F64000C4F2020001680022FE
:1015800041F0040101600068022100F004000190B4
:1015900001981E20FFF7D0FB1E2002B0BDE880405E
:1015A000FFF7BABB90F83D1001291CBF012070471E
:1015B000022180F83D10006841F2FF72C168C4F258
:1015C0000002904241F00101C1600DDC40F2FF7168
:1015D000C4F20001884215DCB0F1804F29D040F2FE
:1015E0000041C4F2000122E040F2FF31C4F20101E7
:1015F000884212DC41F60001C4F20001884218D092
:10160000002112E040F60001C4F20001884210D02F
:1016100040F60041C4F2000109E044F20001C4F2C6
:101620000101884205D040F20041C4F20101884224
:1016300006D1816801F00701062904BF0020704728
:10164000016841F0010101600020704790F83C20E2
:10165000012A4FF0020200F0C68080B5012380F815
:101660003C3080F83D20D0F800C04FF67772DCF8AF
:10167000083023EA0202CCF808200B684F2B28DC44
:101680001F2B44DD202B45D0302B43D0402B40F086
:10169000AC80D1F804E0C968DCF82030DCF8202008
:1016A00022F00102CCF82020DCF8182022F0F00211
:1016B00042EA011123F00A0242EA0E02CCF81810A5
:1016C000CCF82020DCF8081041F0470121F030016F
:1016D0007EE06F2B26DDB3F5005F47D0B3F5805F6A
:1016E00078D0702B40F08180D1E901E3C968DCF843
:1016F000082043EA0E0322F47F4243EA012111430A
:10170000CCF80810DCF8081041F0770160E00BB16C
:10171000102B6AD1DCF8081021F07001194341F058
:10172000070155E0502B34D0602B5ED1D1F804E096
:10173000C968DCF82030DCF8202022F01002CCF858
:101740002020DCF8182022F4704242EA013123F014
:10175000A00242EA0E12CCF81810CCF82020DCF8D7
:10176000081041F0670121F0100131E0D1E901E3F7
:10177000C968DCF8082043EA0E0322F47F4243EAFA
:1017800001211143CCF80810DCF8081041F4804125
:101790001EE0D1F804E0C968DCF82030DCF8202035
:1017A00022F00102CCF82020DCF8182022F0F00210
:1017B00042EA011123F00A0242EA0E02CCF81810A4
:1017C000CCF82020DCF8081041F0570121F020016E
:1017D000CCF808100022012180F83D10002180F88B
:1017E0003C10BDE88040104670470122F3E700003E
:1017F0007047000070B504460068C5680669B10707
:1018000016D515F0020113D06FF00201016101211C
:1018100021778069800703D02046FFF7E9FF05E0C4
:10182000204600F08DF8204600F0C8F9002020770F
:10183000700718D515F0040015D020686FF004016A
:10184000016102212177806910F4407F03D0204696
:10185000FFF7CEFF05E0204600F072F8204600F0CA
:10186000ADF900202077300717D515F0080014D007
:1018700020686FF00801016104212177C0698007A9
:1018800003D02046FFF7B4FF05E0204600F058F8EB
:10189000204600F093F900202077F00618D515F0C7
:1018A000100015D020686FF0100101610821217728
:1018B000C06910F4407F03D02046FFF799FF05E090
:1018C000204600F03DF8204600F078F9002020770F
:1018D000F00718BF15F0010002D1300609D412E05C
:1018E00020686FF001010161204600F069F93006BF
:1018F00009D515F0800006D020686FF080010161E5
:101900002046FFF723FD700609D515F0400006D0EC
:1019100020686FF040010161204600F071F9B006C7
:1019200058BF70BD15F0200008D021686FF020026C
:1019300020460A61BDE87040FFF70ABD70BD000097
:101940007047000090F83C30012B04BF0220704724
:101950004FEAB2020123032A80F83C3000F2F880FB
:101960002DE9F043DFE802F0023D7CBC036840F261
:1019700000461C6A1A6A24F0020422F001021A626C
:101980001A46D3F804C052F818EF8F6843F4806504
:10199000C4F20106B54244EA070405D1CF6824F039
:1019A0000C0427F004073C430F68B54206D1D1E987
:1019B00005582CF440762E4346EA080C2EF07306A8
:1019C0003743C3F804C09F614F6809695F631C62B5
:1019D0009F6947F008079F619F6927F004079F618F
:1019E000B0E0036840F200481C6A1A6A24F0200440
:1019F00022F010021A621A46D3F804C052F818EF07
:101A00008F6843F48065C4F20108454544EA071431
:101A100007D1CF686FF0400624F0C00406EA07162D
:101A20003443D1F80090454506D1D1E905562CF450
:101A300040672E4347EA860C2EF4E64747EA09271B
:101A4000C3F804C09F614F6809699F631C629F6966
:101A500047F400679F619F6927F480679F6170E08A
:101A6000036840F200481C6A1A6A24F4007422F4E5
:101A700080721A621A46D3F804C052F81CEF8F68BD
:101A800043F48065C4F20108454544EA072408D1BF
:101A9000CF6840F2FF463F0224F4406427EA06067E
:101AA0003443D1F80090454506D1D1E905562CF4D0
:101AB00040572E4347EA061C2EF0730747EA0907F2
:101AC000C3F804C0DF614F680969DF631C62DF6926
:101AD00047F00807DF61DF6927F00407DF6131E0C5
:101AE000036840F20045D3F820C01A6A43F48067C7
:101AF00022F480521A621A465C6852F81CEFD1F840
:101B000000808E68C4F20105AF4204D14D6924F40F
:101B1000804444EA85142CF4005747EA06372EF433
:101B2000E64646EA08265C60DE614E6809691E6486
:101B30001F62DF6947F40067DF61DF6927F48067B0
:101B4000DF6109021368194300231160BDE8F04307
:101B5000002180F83C10184670470000002804BFA0
:101B60000120704710B5044690F83D0028B90020C8
:101B700084F83C00204600F01FF8022084F83D0065
:101B80002068211D00F0DEFF012084F8460084F863
:101B90003E0084F83F0084F8400084F8410084F857
:101BA000420084F8430084F8440084F8450084F837
:101BB0003D00002010BD000070470000704700008D
:101BC00040F2E811C2F2000188420AD140F27801E5
:101BD000C2F200010A7922B10A6812B10A68013A18
:101BE0000A6040F27821C2F20001884218BF7047B3
:101BF00040F20040C4F202000421FFF709B80000DF
:101C00007047000070B582B0044690F8420020286A
:101C100009D113460A4600294FF0010018BF002BD6
:101C200004D102B070BD022002B070BD2063002656
:101C300022206663A262A385666484F84200E06B9A
:101C400042F6096C42F689652168C0F6000CC0F6C0
:101C50000005C0E90FC542F66555C0F60005043120
:101C6000C0E91356FEF790FE0196206801680191C5
:101C7000406801900198206950B100BF206850E889
:101C8000030F216840F4807041E80302002AF5D177
:101C9000206850E8050F216840F0010041E8050286
:101CA000002AF5D1206850E8050F216840F0400077
:101CB00041E80502002AF5D1206B012815D100204A
:101CC000009020680168009140680090009800BF73
:101CD000206850E8030F216840F0100041E803023B
:101CE000002AF5D1002002B070BD012002B070BD05
:101CF00080B5014640F60040C4F202000A68A0F533
:101D0000E4339A4218D040F25032C2F200029142BB
:101D100018D040F29832C2F20002914218BF80BD42
:101D20004FF40041FEF774FF40F2A440C2F20000FD
:101D3000BDE8804000F05EBB4FF40041BDE880404C
:101D4000FEF766BF4FF40041FEF762FF40F2244009
:101D5000C2F20000BDE8804000F08EBF10B504461E
:101D600040F25030C2F2000084420FD140F22441D0
:101D7000C2F200018022FFF745FF40F2E000C2F20C
:101D800000000068016821F00801016040F298300D
:101D9000C2F20000844218BF10BD40F2A441C2F25A
:101DA00000018022FFF72EFF40F24010C2F2000037
:101DB0000068016821F00801016010BDB0B582B073
:101DC000044600680168C368426901F02F05202DB0
:101DD00003F0200506D12DB1204602B0BDE8B04089
:101DE00001F05EB85FEA017C1EBF02F0010E03F451
:101DF000907212EB0E0240D1226BCD0618D5012A4B
:101E000016D113F0100213D0002101910168019145
:101E10004168019101994069400636D4A08DE18D59
:101E2000E28D002A18BF884240F00E8102B0B0BD9A
:101E30000A0672D513F080026FD094F84110212960
:101E4000F4D1A168B1F5805F03D12169002900F0C8
:101E50003081216A4A1C226209784160E18C013993
:101E60000A04E184E2D1C16821F08001C160C16847
:101E700041F04001C16002B0B0BDC80718BF13F403
:101E800080705ED1480762D468E0E06B0168496801
:101E90008AB2002ACAD0A38D9A42C7D2E185C0690E
:101EA000B0F5807F31D000BF206850E8030F216873
:101EB00020F4807041E80302002AF5D1206850E840
:101EC000050F216820F0010041E80502002AF5D144
:101ED000206850E8050F216820F0400041E8050225
:101EE000002AF5D1202084F842000020206300BFA2
:101EF000206850E8030F216820F0100041E8030239
:101F0000002AF5D1E06BFEF787FB02206063A08D0D
:101F1000E18D401A81B22046C0E049067FF586AFC8
:101F200013F040013FF482AFC16821F04001C1606D
:101F30002021204684F8411002B0BDE8B04000F0F6
:101F40003FBA606C40F001006064480706D5BEF1FE
:101F5000000F03D0606C40F002006064880706D573
:101F6000BEF1000F03D0606C40F004006064BCF16F
:101F7000000F06D55EEA050003D0606C40F0080053
:101F80006064606C00283FF451AF880603D515B13A
:101F9000204600F085FF20684069616C00F0400039
:101FA00001F00801401848D0206850E8030F21686C
:101FB00020F4907041E80302002AF5D1206850E82F
:101FC000050F216820F0010041E80502002AF5D143
:101FD000206B01280AD100BF206850E8030F216858
:101FE00020F0100041E80302002AF5D1202084F8F7
:101FF00042000020206320684069400653D500BF9E
:10200000206850E8050F216820F0400041E80502F3
:10201000002AF5D1E06B002845D042F65951C0F6B0
:1020200000010165FEF738FB00283FF4FFAEE06BCE
:10203000016D02B0BDE8B04008472046FFF78EFEB4
:102040000020606402B0B0BD401A00BF216851E8B2
:10205000031F226821F4907142E80313002BF5D18D
:10206000216851E8051F226821F0010142E80513AB
:10207000002BF5D1202184F842100021216300BFFC
:10208000216851E8031F226821F0100142E8031380
:10209000002BF5D1022281B22046626302B0BDE876
:1020A000B040FFF725BE204602B0BDE8B040FFF7C4
:1020B00055BE216A31F8022B6FF35F224260216224
:1020C000CCE60000002804BF0120704710B504468C
:1020D00090F8410028B9002084F84000204600F024
:1020E00021F8242084F841002068C16821F40051BF
:1020F000C160204600F034FF2068016921F490415E
:102100000161416921F02A014161C16841F4005136
:10211000C16000202021606484F8411084F84210DE
:10212000606310BD70B586B00446006840F6FF716C
:10213000C4F2010188424FF000010591CDE903117D
:10214000CDE901115DDC44F20041C4F20001884296
:1021500000F0908044F60001C4F20001884240F093
:102160002981002643F630000096C4F2020001697E
:1021700041F480210161016901F4802100910099FD
:102180000096016841F008010160006801A900F0B3
:102190000800009000984FF4407001900220CDE9B3
:1021A000020603200490072005900020C4F20200DC
:1021B00000F54060FEF75AFC40F2E00546F22800C8
:1021C000C2F20005C4F202004FF000614FF48062D9
:1021D00085E843002846C5E90362C5E90566C5E907
:1021E00007666E62FEF730FB002818BFFEF710FA94
:1021F000272000210022E563AC63FEF79DFD272028
:10220000D6E041F20041C4F20101884200F0808032
:1022100041F20001C4F20101884240F0CB8000206D
:1022200043F630010090C4F202014A6942F0100204
:102230004A614A6902F010020092009A00900A680E
:1022400042F001020A60096801F001010091009961
:102250004FF4C06101910221CDE9021003200490E6
:10226000072005900020C4F2020001A9FEF7FEFB42
:1022700006B070BD002643F630000096C4F202009E
:10228000016941F400310161016901F400310091FB
:1022900000990096016841F001010160006801A900
:1022A00000F00100009000980C2001900220CDE980
:1022B000020603200490072005900020C4F20200CB
:1022C000FEF7D4FB46F22800C4F2020040F280057B
:1022D0006030C2F200054FF000614FF4806285E883
:1022E00043002846C5E90362C5E90566C5E90766F6
:1022F0006E62FEF7A9FA002818BFFEF789F92620BA
:1023000000210022E563AC63FEF716FD26204FE0B6
:10231000002643F630000096C4F20200416941F005
:1023200020014161416901F020010091009900966E
:10233000016841F004010160006801A900F0040097
:1023400000900098C02001900220CDE902060320F1
:102350000490082005900020C4F2020000F50060FF
:10236000FEF784FB46F22800C4F2020040F240155A
:1023700000F58060C2F200054FF020614FF48062EA
:1023800085E843002846C5E90362C5E90566C5E955
:1023900007666E62FEF758FA002818BFFEF738F994
:1023A000472000210022E563AC63FEF7C5FC47200F
:1023B000FEF7B2FC06B070BD704700007047000029
:1023C00070470000FEE7000080B540F2E810C2F25E
:1023D0000000FFF7E7F840F23020C2F20000FFF7FC
:1023E000E1F840F27820C2F20000BDE88040FFF73B
:1023F000D9B800002DE9F04740F2E035C2F20005FF
:102400002E7840F2720840F2730904464FF0000A39
:10241000C2F20008C2F20009002709E0002628469F
:102420004121A5F84260FDF7ADFF0137402F26D0CE
:10243000E05DF1B2012909D00029EFD1AA28F4D139
:102440000126A5F842A02E70EFE700BFB5F84210B4
:10245000552809D129B16878A97888F8000089F849
:10246000001002262E70E0E73E2905D84A1C2944B8
:10247000A5F842204870D8E700262E70D5E740F234
:102480009830C2F2000021468022FFF7BBFB40F2E9
:102490004010C2F200000068016821F008010160EC
:1024A000BDE8F08780B582B0002043F6300101908E
:1024B000C4F202010A6842F400120A600A6802F4D7
:1024C00000120192019A00900868002240F48000F6
:1024D00008600868002100F48000009000980C203B
:1024E000FEF72AFC0C20FEF717FC1020002100222A
:1024F000FEF722FC1020FEF70FFC392000210022FD
:10250000FEF71AFC392002B0BDE88040FEF704BC9B
:102510002DE9F04F87B0002743F630000697CDE94C
:102520000477CDE902770197C4F20200016840F612
:10253000000841F0040101600168C4F2020801F0E2
:1025400004010191019901970168002241F0800185
:10255000016001684FF4585501F080010191019923
:102560000197016841F001010160016801F001017A
:10257000019101990197016841F002010160016830
:1025800001F00201019101990197016841F01001E8
:102590000160016801F01001019101990197016842
:1025A00041F00801016000684FF4585100F0080044
:1025B000019001984046FEF733FBA8F500663046CF
:1025C000F0210022FEF72CFBA8F5806420460421B0
:1025D0000022FEF725FB08F5006A50464FF4006123
:1025E0000022FEF71DFB08F5806948464FF4604164
:1025F0000022FEF715FB029502AD4FF0010B40469D
:102600002946CDE903B70597FEF730FAF020CDE96A
:10261000020B30462946CDE90477FEF727FA04205D
:10262000CDE9020B20462946CDE90477FEF71EFAD4
:102630004FF400600290504629464FF40064CDE903
:1026400003B70597FEF712FA4FF46040CDE9020B8D
:1026500048462946CDE90477FEF708FA4FF4807022
:1026600002904FF40410CDE9030B40462946FEF7D3
:10267000FDF940462946CDE902470497FEF7F6F9F1
:10268000172000210022FEF757FB1720FEF744FB1E
:1026900007B0BDE8F08F000070B59CB0002540F297
:1026A000A010C4F201050021C2F20000A72244F6E6
:1026B0001F6380261591CDE91311CDE91111CDE9E4
:1026C0000F11CDE90D11CDE90B11CDE90911CDE9BE
:1026D0000711CDE90511CDE90311CDE90111C0E9DB
:1026E0000052C0E90213C0E904118661FEF7B8FE8A
:1026F000002818BFFDF78CFF4FF48050129040F275
:10270000A010C2F2000012A9FEF7A0FF002818BF17
:10271000FDF77EFF40F2A010C2F20000FFF71EFAA4
:10272000002818BFFDF774FF40F2A0100024C2F289
:10273000000010A9CDE91044FEF734FE002818BFB0
:10274000FDF766FF6020CDE9090440F2A010C2F257
:10275000000009A90022CDE90B44CDE90D440F94F6
:10276000FFF7F0F8002818BFFDF752FF40F2A01461
:102770004FF40050C2F200040026069001A9204642
:102780000596CDE90366CDE901660896FEF7E2FD00
:10279000002818BFFDF73CFF20681B96A842CDE932
:1027A00019661896179601D01CB070BD002043F62C
:1027B00030011690C4F202010A6842F010020A6069
:1027C000096801F01001169116994FF400711791E4
:1027D0000221CDE918101A9001201B9005F58830D0
:1027E00017A9FEF743F91CB070BD000080B586B094
:1027F00040F2E8100021C2F200004FF08042532363
:1028000042F2107CCDE90411CDE90211CDE90011AD
:10281000C0E90023C0E9021C01618161FEF720FECE
:10282000002818BFFDF7F4FE4FF48050029040F2EC
:10283000E810C2F2000002A9FEF708FF002818BF46
:10284000FDF7E6FE0020CDE9000040F2E810C2F2FC
:1028500000006946FEF7A6FD002818BFFDF7D8FE68
:1028600006B080BD80B586B040F2302040F2004214
:102870000021C2F20000C4F20002532340F2E73C00
:10288000CDE90411CDE90211CDE90011C0E9002321
:10289000C0E9021C01618161FEF7E2FD002818BF5A
:1028A000FDF7B6FE4FF48050029040F23020C2F2A5
:1028B000000002A9FEF7CAFE002818BFFDF7A8FE17
:1028C0000020CDE9000040F23020C2F2000069464D
:1028D000FEF768FD002818BFFDF79AFE06B080BD20
:1028E00080B586B040F2782040F600020021C2F2A6
:1028F0000000C4F2000242F2CF0341F2883CCDE96D
:102900000411CDE90211CDE90011C0E90023C0E9AD
:10291000021C01618161FEF7A3FD002818BFFDF7CD
:1029200077FE4FF48050029040F27820C2F200000F
:1029300002A9FEF78BFE002818BFFDF769FE0020F4
:10294000CDE9000040F27820C2F200006946FEF7AF
:1029500029FD002818BFFDF75BFE06B080BD000012
:1029600080B540F2C02041F20001C2F20000C4F282
:10297000010100234FF00C0C4FF4E13280E80E000F
:10298000C0E90333C0E905C3C361FFF79BFB00281F
:1029900008BF80BDBDE88040FDF73ABE80B540F27B
:1029A000083044F20041C2F20000C4F200010023EA
:1029B0004FF00C0C4FF4E13280E80E00C0E9033315
:1029C000C0E905C3C361FFF77DFB002808BF80BDD8
:1029D000BDE88040FDF71CBE80B540F2503044F6A3
:1029E0000001C2F20000C4F2000100234FF00C0C01
:1029F0004FF4E13280E80E00C0E90333C0E905C3BB
:102A0000C361FFF75FFB002808BF80BDBDE88040C1
:102A1000FDF7FEBD80B540F2983041F20041C2F2B0
:102A20000000C4F2010100234FF00C0C4FF4E1321E
:102A300080E80E00C0E90333C0E905C3C361FFF7B6
:102A400041FB002808BF80BDBDE88040FDF7E0BD28
:102A5000FEE70000FEE7000070470000704700003E
:102A6000FEF7EAB870B592B006AC20463021FDF70B
:102A7000ABFC002543F640000595CDE90355CDE9B3
:102A800001550095C4F202000168022641F0805110
:102A90000160006800F080500090009847F200004C
:102AA0000095C4F20000016841F4804101600068B3
:102AB000A82100F4804000900098012006904FF477
:102AC000803007904FF480000D9004200E901190FC
:102AD00020460C96CDE90F16FEF778FA08B172B6CB
:102AE000FEE70F20CDE901064FF4A05004904FF40B
:102AF0008050059001A805210395FEF759F910B102
:102B000072B600BFFEE712B070BD00004EF68850EE
:102B1000CEF20000016841F47001016070470000CE
:102B200040F2E810C2F20000FEF764BE40F230202E
:102B3000C2F20000FEF75EBE40F27820C2F2000052
:102B4000FEF758BE10B540F6FF3E0368C4F2000E13
:102B500040F2004C7045C4F2010C0FDCB0F1804F24
:102B600019D040F20042C4F20002904213D040F665
:102B70000002C4F2000290420DD010E040F6004284
:102B8000C4F20002904206D0604504D00022C4F294
:102B90000102904203D14A6823F07003134341F6C7
:102BA000FF72C4F2000290420DDC70451FDCB0F1F0
:102BB000804F41D040F20042C4F2000290423BD02C
:102BC00040F6000221E043F6FF72C4F20102904297
:102BD00020DC42F20002C4F2000290422CD000221B
:102BE000C4F20102904227D0604525D028E040F68B
:102BF0000042C4F2000290421ED041F60002C4F22C
:102C00000002904218D041F60042C4F20002904205
:102C100012D015E044F20002C4F2010290420BD03F
:102C200044F60002C4F20102904205D044F2004290
:102C3000C4F20102904203D1CA6823F440731343E3
:102C400023F080024B69D1F800E08C681A430260DF
:102C5000C46240F48062C0F828E0624504BF09699C
:102C60000163012141610169C90708BF10BD016904
:102C700021F00101016110BD2DE9F04F81B040F25A
:102C80002455C2F2000595F8008040F2700A40F227
:102C9000750B40F2740604464FF00009C2F2000AB8
:102CA000C2F2000B0027C2F200060AE04FF0000853
:102CB00028464121A5F84280FDF764FB0137402FEB
:102CC00036D0E05D5FFA88F101290BD00029EDD103
:102CD000AA28F3D14FF00108A5F8429085F80080AA
:102CE000ECE700BFB5F84210552814D102290DD3E6
:102CF0006878A978EA782B79307040F27100C2F2D6
:102D0000000001708AF800208BF800304FF00208B4
:102D100085F80080D2E73E2905D84A1C2944A5F849
:102D200042204870CAE74FF0000885F80080C5E7E8
:102D300040F25030C2F2000021468022FEF762FFCE
:102D400040F2E000C2F200000068016821F00801D2
:102D5000016001B0BDE8F08F806B0021C185C184A6
:102D6000FEF7FCBF806B0168496990F84120212A79
:102D700011D111F080010ED00021C184016851E809
:102D8000031F026821F0C00142E80313002BF5D1B4
:102D9000202180F841100168496990F84220222AD8
:102DA0002BD111F0400128D00021C185016851E8E4
:102DB000031F026821F4907142E80313002BF5D140
:102DC000016851E8051F026821F0010142E805137E
:102DD000002BF5D1016B01290AD100BF016851E830
:102DE000031F026821F0100142E80313002BF5D104
:102DF000202180F8421000210163416C41F0100154
:102E00004164FEF7ABBF00000168806B0968C9052B
:102E100030D40021C18500BF016851E8031F02685A
:102E200021F4807142E80313002BF5D1016851E8C9
:102E3000051F026821F0010142E80513002BF5D1BE
:102E4000016851E8051F026821F0400142E80513BE
:102E5000002BF5D1202180F84210016B012909D106
:102E6000016851E8031F026821F0100142E80313D2
:102E7000002BF5D100214163016B012918BFFFF739
:102E80009BBA818DFEF734BF806B01214163016BDA
:102E9000012918BFFFF792BA818D4908FEF728BFB4
:102EA00090F84210222918BF70478268B2F5805FFF
:102EB00001D1016991B1816AB2F5805F07D00AB989
:102EC000026922B10268526802F07F0201E00268E2
:102ED00052680A70816A0131816207E00168826A82
:102EE00049686FF35F2122F8021B8262C18D0139AC
:102EF0000A04C18500D070470168CA6822F0200228
:102F0000CA60CA6822F48072CA604A6922F001026B
:102F10004A61202180F8421000214163026B012A9E
:102F200018BFFFF749BA81B0016300BF016851E8DB
:102F3000031F026821F0100142E80313002BF5D1B2
:102F400001680A68D20606D5002200920A6800923B
:102F5000496800910099818D01B0FEF7C9BE00005B
:102F600010B504460068D4E902C22369016921F45E
:102F7000405111430161626943EA0C01E369114365
:102F8000C268194349F20C639A431143C160416915
:102F9000A26921F4407141F20043114340F4806280
:102FA000C4F201039A42416102D1FDF7C5FF01E07D
:102FB000FDF7AEFFE16963681922B1F5004FA0FB90
:102FC000020120D15A00DB0FFDF764F948F21F51CE
:102FD000C5F2EB11A0FB01235A094FF69C73C0F612
:102FE000FF7303F1805302FB0300322303EBC000A5
:102FF000A0FB01014FF4F87000EA111000EB021081
:10300000C1F342111CE09A009B0FFDF743F948F20F
:103010001F51C5F2EB11A0FB01235A094FF69C7317
:10302000C0F6FF7302FB0300322303EB0010A0FB8A
:103030000101F02000EA511000EB0210C1F343112E
:1030400008442168886010BD40F20830C2F20000D8
:10305000FEF7B4BE40F25030C2F20000FEF7AEBE42
:1030600040F29830C2F20000FEF7A8BEFEE7000072
:10307000FDF7F0FDFFF7F6FCFFF74AFAFFF712FA4B
:10308000FFF70AFBFFF76CFCFFF788FCFFF7A4FCD7
:10309000FFF7C0FCFFF7AAFBFFF7E4FBFFF720FCFC
:1030A000FFF792F9FDF7F4F9FEE7F1EE100A4FF69B
:1030B000FF71C0F2C03120EA010040F04070E1EE43
:1030C000100A704700000000000000000102030425
:1030D000060708090000000001020304000610169C
:1030E0000006101608310008000000201000000043
:1030F000EC0100081831000810000020600B0000EF
:103100000C020008000000000024F4000100000090
:083110001000000000000000A7
:040000050800018965
:00000001FF
